{
	"data": {
		"bytecode": {
			"linkReferences": {},
			"object": "608060405260055f553480156012575f80fd5b50610441806100205f395ff3fe60806040526004361061003e575f3560e01c8063098de8201461004257806398d5fdca1461006c578063b60d428814610096578063f36089ec146100a0575b5f80fd5b34801561004d575f80fd5b506100566100b6565b60405161006391906101c0565b60405180910390f35b348015610077575f80fd5b506100806100bb565b60405161008d91906101c0565b60405180910390f35b61009e610160565b005b3480156100ab575f80fd5b506100b46101a6565b005b5f5481565b5f8073694aa1769357215de4fac081bf1f309adc32530690505f8173ffffffffffffffffffffffffffffffffffffffff1663feaf968c6040518163ffffffff1660e01b815260040160a060405180830381865afa15801561011e573d5f803e3d5ffd5b505050506040513d601f19601f820116820180604052508101906101429190610279565b5050509150506402540be40081610159919061031d565b9250505090565b5f543410156101a4576040517f08c379a000000000000000000000000000000000000000000000000000000000815260040161019b906103ed565b60405180910390fd5b565b565b5f819050919050565b6101ba816101a8565b82525050565b5f6020820190506101d35f8301846101b1565b92915050565b5f80fd5b5f69ffffffffffffffffffff82169050919050565b6101fb816101dd565b8114610205575f80fd5b50565b5f81519050610216816101f2565b92915050565b5f819050919050565b61022e8161021c565b8114610238575f80fd5b50565b5f8151905061024981610225565b92915050565b610258816101a8565b8114610262575f80fd5b50565b5f815190506102738161024f565b92915050565b5f805f805f60a08688031215610292576102916101d9565b5b5f61029f88828901610208565b95505060206102b08882890161023b565b94505060406102c188828901610265565b93505060606102d288828901610265565b92505060806102e388828901610208565b9150509295509295909350565b7f4e487b71000000000000000000000000000000000000000000000000000000005f52601160045260245ffd5b5f6103278261021c565b91506103328361021c565b92508282026103408161021c565b91507f800000000000000000000000000000000000000000000000000000000000000084145f84121615610377576103766102f0565b5b828205841483151761038c5761038b6102f0565b5b5092915050565b5f82825260208201905092915050565b7f446964206e6f742073656e6420656e6f756768204554480000000000000000005f82015250565b5f6103d7601783610393565b91506103e2826103a3565b602082019050919050565b5f6020820190508181035f830152610404816103cb565b905091905056fea26469706673582212207370d0695669829a466a0f6d8e00634351152bd803653838d37eeeb5897329ce64736f6c634300081a0033",
			"opcodes": "PUSH1 0x80 PUSH1 0x40 MSTORE PUSH1 0x5 PUSH0 SSTORE CALLVALUE DUP1 ISZERO PUSH1 0x12 JUMPI PUSH0 DUP1 REVERT JUMPDEST POP PUSH2 0x441 DUP1 PUSH2 0x20 PUSH0 CODECOPY PUSH0 RETURN INVALID PUSH1 0x80 PUSH1 0x40 MSTORE PUSH1 0x4 CALLDATASIZE LT PUSH2 0x3E JUMPI PUSH0 CALLDATALOAD PUSH1 0xE0 SHR DUP1 PUSH4 0x98DE820 EQ PUSH2 0x42 JUMPI DUP1 PUSH4 0x98D5FDCA EQ PUSH2 0x6C JUMPI DUP1 PUSH4 0xB60D4288 EQ PUSH2 0x96 JUMPI DUP1 PUSH4 0xF36089EC EQ PUSH2 0xA0 JUMPI JUMPDEST PUSH0 DUP1 REVERT JUMPDEST CALLVALUE DUP1 ISZERO PUSH2 0x4D JUMPI PUSH0 DUP1 REVERT JUMPDEST POP PUSH2 0x56 PUSH2 0xB6 JUMP JUMPDEST PUSH1 0x40 MLOAD PUSH2 0x63 SWAP2 SWAP1 PUSH2 0x1C0 JUMP JUMPDEST PUSH1 0x40 MLOAD DUP1 SWAP2 SUB SWAP1 RETURN JUMPDEST CALLVALUE DUP1 ISZERO PUSH2 0x77 JUMPI PUSH0 DUP1 REVERT JUMPDEST POP PUSH2 0x80 PUSH2 0xBB JUMP JUMPDEST PUSH1 0x40 MLOAD PUSH2 0x8D SWAP2 SWAP1 PUSH2 0x1C0 JUMP JUMPDEST PUSH1 0x40 MLOAD DUP1 SWAP2 SUB SWAP1 RETURN JUMPDEST PUSH2 0x9E PUSH2 0x160 JUMP JUMPDEST STOP JUMPDEST CALLVALUE DUP1 ISZERO PUSH2 0xAB JUMPI PUSH0 DUP1 REVERT JUMPDEST POP PUSH2 0xB4 PUSH2 0x1A6 JUMP JUMPDEST STOP JUMPDEST PUSH0 SLOAD DUP2 JUMP JUMPDEST PUSH0 DUP1 PUSH20 0x694AA1769357215DE4FAC081BF1F309ADC325306 SWAP1 POP PUSH0 DUP2 PUSH20 0xFFFFFFFFFFFFFFFFFFFFFFFFFFFFFFFFFFFFFFFF AND PUSH4 0xFEAF968C PUSH1 0x40 MLOAD DUP2 PUSH4 0xFFFFFFFF AND PUSH1 0xE0 SHL DUP2 MSTORE PUSH1 0x4 ADD PUSH1 0xA0 PUSH1 0x40 MLOAD DUP1 DUP4 SUB DUP2 DUP7 GAS STATICCALL ISZERO DUP1 ISZERO PUSH2 0x11E JUMPI RETURNDATASIZE PUSH0 DUP1 RETURNDATACOPY RETURNDATASIZE PUSH0 REVERT JUMPDEST POP POP POP POP PUSH1 0x40 MLOAD RETURNDATASIZE PUSH1 0x1F NOT PUSH1 0x1F DUP3 ADD AND DUP3 ADD DUP1 PUSH1 0x40 MSTORE POP DUP2 ADD SWAP1 PUSH2 0x142 SWAP2 SWAP1 PUSH2 0x279 JUMP JUMPDEST POP POP POP SWAP2 POP POP PUSH5 0x2540BE400 DUP2 PUSH2 0x159 SWAP2 SWAP1 PUSH2 0x31D JUMP JUMPDEST SWAP3 POP POP POP SWAP1 JUMP JUMPDEST PUSH0 SLOAD CALLVALUE LT ISZERO PUSH2 0x1A4 JUMPI PUSH1 0x40 MLOAD PUSH32 0x8C379A000000000000000000000000000000000000000000000000000000000 DUP2 MSTORE PUSH1 0x4 ADD PUSH2 0x19B SWAP1 PUSH2 0x3ED JUMP JUMPDEST PUSH1 0x40 MLOAD DUP1 SWAP2 SUB SWAP1 REVERT JUMPDEST JUMP JUMPDEST JUMP JUMPDEST PUSH0 DUP2 SWAP1 POP SWAP2 SWAP1 POP JUMP JUMPDEST PUSH2 0x1BA DUP2 PUSH2 0x1A8 JUMP JUMPDEST DUP3 MSTORE POP POP JUMP JUMPDEST PUSH0 PUSH1 0x20 DUP3 ADD SWAP1 POP PUSH2 0x1D3 PUSH0 DUP4 ADD DUP5 PUSH2 0x1B1 JUMP JUMPDEST SWAP3 SWAP2 POP POP JUMP JUMPDEST PUSH0 DUP1 REVERT JUMPDEST PUSH0 PUSH10 0xFFFFFFFFFFFFFFFFFFFF DUP3 AND SWAP1 POP SWAP2 SWAP1 POP JUMP JUMPDEST PUSH2 0x1FB DUP2 PUSH2 0x1DD JUMP JUMPDEST DUP2 EQ PUSH2 0x205 JUMPI PUSH0 DUP1 REVERT JUMPDEST POP JUMP JUMPDEST PUSH0 DUP2 MLOAD SWAP1 POP PUSH2 0x216 DUP2 PUSH2 0x1F2 JUMP JUMPDEST SWAP3 SWAP2 POP POP JUMP JUMPDEST PUSH0 DUP2 SWAP1 POP SWAP2 SWAP1 POP JUMP JUMPDEST PUSH2 0x22E DUP2 PUSH2 0x21C JUMP JUMPDEST DUP2 EQ PUSH2 0x238 JUMPI PUSH0 DUP1 REVERT JUMPDEST POP JUMP JUMPDEST PUSH0 DUP2 MLOAD SWAP1 POP PUSH2 0x249 DUP2 PUSH2 0x225 JUMP JUMPDEST SWAP3 SWAP2 POP POP JUMP JUMPDEST PUSH2 0x258 DUP2 PUSH2 0x1A8 JUMP JUMPDEST DUP2 EQ PUSH2 0x262 JUMPI PUSH0 DUP1 REVERT JUMPDEST POP JUMP JUMPDEST PUSH0 DUP2 MLOAD SWAP1 POP PUSH2 0x273 DUP2 PUSH2 0x24F JUMP JUMPDEST SWAP3 SWAP2 POP POP JUMP JUMPDEST PUSH0 DUP1 PUSH0 DUP1 PUSH0 PUSH1 0xA0 DUP7 DUP9 SUB SLT ISZERO PUSH2 0x292 JUMPI PUSH2 0x291 PUSH2 0x1D9 JUMP JUMPDEST JUMPDEST PUSH0 PUSH2 0x29F DUP9 DUP3 DUP10 ADD PUSH2 0x208 JUMP JUMPDEST SWAP6 POP POP PUSH1 0x20 PUSH2 0x2B0 DUP9 DUP3 DUP10 ADD PUSH2 0x23B JUMP JUMPDEST SWAP5 POP POP PUSH1 0x40 PUSH2 0x2C1 DUP9 DUP3 DUP10 ADD PUSH2 0x265 JUMP JUMPDEST SWAP4 POP POP PUSH1 0x60 PUSH2 0x2D2 DUP9 DUP3 DUP10 ADD PUSH2 0x265 JUMP JUMPDEST SWAP3 POP POP PUSH1 0x80 PUSH2 0x2E3 DUP9 DUP3 DUP10 ADD PUSH2 0x208 JUMP JUMPDEST SWAP2 POP POP SWAP3 SWAP6 POP SWAP3 SWAP6 SWAP1 SWAP4 POP JUMP JUMPDEST PUSH32 0x4E487B7100000000000000000000000000000000000000000000000000000000 PUSH0 MSTORE PUSH1 0x11 PUSH1 0x4 MSTORE PUSH1 0x24 PUSH0 REVERT JUMPDEST PUSH0 PUSH2 0x327 DUP3 PUSH2 0x21C JUMP JUMPDEST SWAP2 POP PUSH2 0x332 DUP4 PUSH2 0x21C JUMP JUMPDEST SWAP3 POP DUP3 DUP3 MUL PUSH2 0x340 DUP2 PUSH2 0x21C JUMP JUMPDEST SWAP2 POP PUSH32 0x8000000000000000000000000000000000000000000000000000000000000000 DUP5 EQ PUSH0 DUP5 SLT AND ISZERO PUSH2 0x377 JUMPI PUSH2 0x376 PUSH2 0x2F0 JUMP JUMPDEST JUMPDEST DUP3 DUP3 SDIV DUP5 EQ DUP4 ISZERO OR PUSH2 0x38C JUMPI PUSH2 0x38B PUSH2 0x2F0 JUMP JUMPDEST JUMPDEST POP SWAP3 SWAP2 POP POP JUMP JUMPDEST PUSH0 DUP3 DUP3 MSTORE PUSH1 0x20 DUP3 ADD SWAP1 POP SWAP3 SWAP2 POP POP JUMP JUMPDEST PUSH32 0x446964206E6F742073656E6420656E6F75676820455448000000000000000000 PUSH0 DUP3 ADD MSTORE POP JUMP JUMPDEST PUSH0 PUSH2 0x3D7 PUSH1 0x17 DUP4 PUSH2 0x393 JUMP JUMPDEST SWAP2 POP PUSH2 0x3E2 DUP3 PUSH2 0x3A3 JUMP JUMPDEST PUSH1 0x20 DUP3 ADD SWAP1 POP SWAP2 SWAP1 POP JUMP JUMPDEST PUSH0 PUSH1 0x20 DUP3 ADD SWAP1 POP DUP2 DUP2 SUB PUSH0 DUP4 ADD MSTORE PUSH2 0x404 DUP2 PUSH2 0x3CB JUMP JUMPDEST SWAP1 POP SWAP2 SWAP1 POP JUMP INVALID LOG2 PUSH5 0x6970667358 0x22 SLT KECCAK256 PUSH20 0x70D0695669829A466A0F6D8E00634351152BD803 PUSH6 0x3838D37EEEB5 DUP10 PUSH20 0x29CE64736F6C634300081A003300000000000000 "
		},
		"gasEstimates": {
			"creation": {
				"codeDepositCost": "217800",
				"executionCost": "22366",
				"totalCost": "240166"
			},
			"external": {
				"fund()": "2549",
				"getConversionRate()": "187",
				"getPrice()": "infinite",
				"minimumUsd()": "2402"
			}
		},
		"methodIdentifiers": {
			"fund()": "b60d4288",
			"getConversionRate()": "f36089ec",
			"getPrice()": "98d5fdca",
			"minimumUsd()": "098de820"
		}
	},
	"abi": [
		{
			"inputs": [],
			"name": "fund",
			"outputs": [],
			"stateMutability": "payable",
			"type": "function"
		},
		{
			"inputs": [],
			"name": "getConversionRate",
			"outputs": [],
			"stateMutability": "nonpayable",
			"type": "function"
		},
		{
			"inputs": [],
			"name": "getPrice",
			"outputs": [
				{
					"internalType": "uint256",
					"name": "",
					"type": "uint256"
				}
			],
			"stateMutability": "view",
			"type": "function"
		},
		{
			"inputs": [],
			"name": "minimumUsd",
			"outputs": [
				{
					"internalType": "uint256",
					"name": "",
					"type": "uint256"
				}
			],
			"stateMutability": "view",
			"type": "function"
		}
	]
}